:020000040800F2
:10000000F8060020C5000008B118000865150008B2
:1000100000000000000000000000000000000000E0
:10002000000000000000000000000000B5180008FB
:100030000000000000000000B3180008B718000816
:10004000D700000800000000D7000008D700000813
:10005000D7000008D7000008D7000008D700000824
:1000600000000000D7000008D7000008D7000008F3
:10007000D7000008D7000008D700000800000000E3
:10008000D70000080000000000000000D7000008B2
:1000900000000000D7000008D7000008D7000008C3
:1000A00000000000D700000800000000D700000892
:1000B0000348854600F0E4FA00480047251D000883
:1000C000F80600200448804704480047FEE7FEE7A2
:1000D000FEE7FEE7FEE7FEE737190008B10000087B
:1000E00010B5202A04DB0846203AD040002110BD7C
:1000F0000B46D340D0402024A21A91400843194611
:1001000010BDD2B201E00270401C491EFBD2704704
:100110000022F6E710B513460A4604461946FFF7D3
:10012000F0FF204610BD0000F0B5074608465840D5
:1001300087B0C00F049048000E4659004008490897
:10014000BC1A884105D2384631461E4617460B4632
:1001500002465800400810434CD0300D0390400533
:100160005900400D490D0590401A0290402872DA5E
:1001700018030121000B090508430190049800921F
:10018000002805D001995242002088410092019038
:10019000029840210A1A0199009800F0BAF9054620
:1001A0000C466B4607CB00F0C4F9C0197141039AA5
:1001B0000E0D0023D71756401A467A40164344D0F6
:1001C000049A002A2DD0029A012A039A15DC1205FE
:1001D000C01A914101263605001C7141D20F059EBF
:1001E000D2070093019202962A46234600F0C1F9F5
:1001F00007B0F0BD38463146FAE71605224A0F46E9
:10020000B218C01AB74101210905001C4F4100185E
:100210007F41114618187941E20F10436D1964416E
:1002200013E0E2076D0815436408C2071443039AFC
:1002300001261205C01A91413605001C7141CE07F6
:10024000400830434908C01851412A46234600F06F
:1002500083F9CDE7FFE7049801224000C117121A85
:1002600000238B4104983146C417381AA141EEE7A8
:1002700030B40124E407634030BC55E730B40124B6
:10028000E407614030BC4FE70000E0FFF0B51FB469
:1002900088B00B990998002448400999C00F49007B
:1002A00049080991C0070B990090490049080B9132
:1002B00009990898A64608431CD00B990A98084348
:1002C00018D0099801244000420D4800410D0998BA
:1002D00024050003000B204309900B980003000B3A
:1002E00020430B9050181C494018002201901446DE
:1002F000104605E0002001460DB0F0BD032801DAEC
:10030000034600E003239C46C11A0AAE0AE05F00E0
:1003100008ADED5B4F00F75B7D430027AA187C41D9
:10032000491C5B1E6145F2DD410004AB5A522104B9
:10033000120C0A43240C401C0828DFDB01980290B1
:100340000099704601910090059B049A07990698C0
:1003500000F00FF9D0E700000DFCFFFFF0B50C46F0
:100360005C4085B0E40FE40703944C000026640869
:1003700059009446490802460296224321D062461B
:100380000A431ED06200570D4A000E032303550D89
:10039000012402462C492405781B1B0B360B401800
:1003A00023432643614600901C46501AB44103D3B0
:1003B0000098401C009002E0921800985B410028D1
:1003C00003DA0020014605B0F0BD00200121090537
:1003D0000746864611E064461D46141BB54106D308
:1003E0006546521BB341744607430C43A646CD07EE
:1003F00040084908284392185B4105460D43EAD15D
:100400001046184313D060461946504071400843C7
:1004100006D06046101AB34106D20122002306E03E
:1004200000220123DB0702E00122D243531000988F
:1004300074460105381C6141029C039D0019694105
:1004400000F08AF8BFE70000FD0300000EB5C217F8
:10045000C10F5040CA0740180021054B029301927A
:1004600000910A460B4600F084F803B000BD00007E
:100470003304000070B50446002903D00020202278
:10048000012310E0002801D00020C043C046C04630
:100490000DE02546D5408D4205D30D469540641BA1
:1004A0001D46954040191546521E002DF1DC21468F
:1004B00070BDF0B51FB40646002082B0054640244A
:1004C000019100901BE0019922460F463046FFF74C
:1004D00007FE049A059B801A994110D310461946CD
:1004E000224600F016F8361A8F4101972246012065
:1004F0000021009F00F00DF838184D410090204673
:10050000641E0028DFDC019B00982946324607B0B4
:10051000F0BD10B5202A04DB0146203A91400020AE
:1005200010BD914020239C1A0346E340194390409C
:1005300010BD10B5202A06DBCB170846203A104123
:10054000C1170B4306E00B461341D0402024A21AEA
:1005500091400843194610BD10B5002B08DA00245D
:10056000401C614192185B411A4301D14008400090
:1005700010BDF0B51FB482B005460C0003D008468C
:1005800001F094FE02E001F091FE2030024600905E
:1005900021462846FFF7BDFF049B059A04460F46F7
:1005A00018431143084314D0184610431BD0009839
:1005B00040210A1A18460599FFF792FD05460E4696
:1005C000009A05990498FFF7A4FF084305D001207D
:1005D00004E02046394607B0F0BD0020C1170543AE
:1005E0000E432C43374300990E986305401A790552
:1005F000E40A00220C43FD0A0A3002D5002001461D
:10060000E9E70105101969410C9C0D9D001969412C
:10061000FFF7A2FFDFE700004A0009030123090BEF
:100620001B0519430A4B10B5520D9A4202DA0020FD
:10063000014610BD064B34339A4203DC9A1AFFF789
:100640004FFD10BD034BD218FFF763FF10BD000034
:10065000FF030000CDFBFFFF10B5002904DB0124E0
:10066000E40740428C412146002B04DB1C46012359
:10067000DB075242A341994200D1904210BD0000D5
:100680001CB5094800900948019005460126009CC8
:1006900005E0E36807CC33430C3C98471034AC4288
:1006A000F7D3FFF709FD000040330008603300086E
:1006B000EFF3108072B6FEE7B0B5044600F0E4F840
:1006C0000546601C02D004480078041900F0DCF8EC
:1006D000401BA042FAD3B0BD00000020F0B58BB0A3
:1006E00005905F4A904201D0052000E00320009071
:1006F000002709973C4606910A681046E04000D161
:10070000ABE001200546A5402A4000D19FE00292BF
:100710000390089403242046B840C3434E683246F1
:100720002240501E01280793049615D80197059F73
:10073000B8681840CC6801998C400443BC60F0064E
:10074000C00F089988407C68AC433D46019F044334
:100750006C60039B029E07E0032A059D039B029E9B
:1007600002D12246049C1EE0E868079908400699D9
:100770008C68BC400443EC60022A049C13D11C200A
:10078000099908400F2282400899CC08A4002C192E
:10079000256A954306990A6982402A43059D22628B
:1007A0004C6803222240BA40286807990840104349
:1007B0002860A003800F0699089C48D02A4A106838
:1007C00018431060106818400A90032084430A9868
:1007D000264822580920C006059D854208D0244895
:1007E000854206D023488542009B02D1022300E0C7
:1007F00000230C20099D28400F258540AA431B4D4E
:100800006419834013432360164880684A68D30202
:1008100001D5304300E0B043089C124B9860D86883
:10082000930201D5304300E0B0430E4BD8605868C6
:10083000930301D5304300E0B0430A4B5860186879
:10084000D20301D5304300E0B043064A1060BF1C1C
:100850000998001D0990641C4EE70BB0F0BDC0461E
:10086000000C00480004014018100240080001403C
:100870000004004800080048002A01D0182200E0C7
:100880002822815070470000014800687047C04628
:10089000F4020020B0B50246034640335C780220E3
:1008A000202C17D11C78012C14D0242058701068EB
:1008B00002680124A2430260220305689543056093
:1008C00002680A4302600168214301600020187039
:1008D00020215970B0BDB0B50246034640335C7864
:1008E0000220202C17D11C78012C14D02420587001
:1008F000106802680124A24302600F2212020568F8
:1009000095430902294301600168214301600020E9
:10091000187020215970B0BDF8B5002822D00446C7
:10092000054640356878002804D10020287020460C
:1009300000F0F6F9242068702068026801218A43DB
:1009400002600F22120663689343036183681B4AA7
:1009500013408360A368E668012E05D1CE033343BC
:1009600083600BE00120F8BD2127BF023B43836079
:10097000022E03D1CB0246681E4302E0CB0246683A
:100980009E43466043680E4E1E434660C368134054
:10099000C360226963691343A26912021A43C260E9
:1009A000E269236A1343036002680A43026000207D
:1009B0006064202169702063A870F8BDFF7FFFFF8D
:1009C00000800002F0B587B00746054640356878DC
:1009D0000224202846D10C9E002E40D00D980028DD
:1009E0003DD00690287801283CD0029301920391D3
:1009F00001242C70FFF748FF05900090E1031923B4
:100A00003846224600F050FE00282BD10E98049064
:100A1000222068704020A870002078647E6278638D
:100A2000064606987885BC4800900298C2B23846BF
:100A30000399334600F01EFE38460499059A00F0EB
:100A400097FE314600282AD106913868029901297B
:100A50000BD10199C9B28162049B059E16E0012465
:100A600060027864204607B0F0BD0199090A8162EE
:100A700038460499059E324600F07AFE0028069911
:100A80000DD138680199C9B28162049B009640215A
:100A90000022384600F008FE0028069901D029708F
:100AA000E0E7012426066306788D000A32480296A4
:100AB000019306D001223A850090384603993346C7
:100AC00005E0798D39850090CAB23846039900F067
:100AD000D1FD059E049B0096042100223846069213
:100AE00000F0E2FD0028BDD1786A3968496A0170DA
:100AF000788D401E7885786A401C7862388D401E5B
:100B00003885798D00291FD000041DD100968021E1
:100B1000002638463246049B00F0C6FD0028A1D1CD
:100B2000788D000A06D001223A850096384603994E
:100B3000029B06E0788D38850096C2B2384603994C
:100B4000019B00F097FD059E788D0028049BC2D183
:100B500038461946324600F0E1FD002882D1386857
:100B60002021C16142686D4B134043606970069C4F
:100B70002C70AC7076E7C04600240080F0B589B0D8
:100B80000746044640346078022520285ED10E9E38
:100B9000002E58D00F98002855D008900692207843
:100BA000012853D00125257007910593FFF76CFEAE
:100BB00003900090E903192338462A4600F074FD9B
:100BC000059B0799002841D110980490212060705E
:100BD0004020A0700020029078647E6278630898BC
:100BE00078854D480090DAB201252B0638460893E7
:100BF00000F040FD38460499039E324600F0B8FDEF
:100C0000002802981DD13868059901290BD0069952
:100C1000090A816238460499324600F0A9FD00288D
:100C200002980ED138680699C9B28162049B009679
:100C3000802100223846059200F036FD00280298F7
:100C400007D0207002E0012568027864284609B0C8
:100C5000F0BD01256B06788D000A069307D0FF22B0
:100C60003A850020009038460799089B06E0788D69
:100C7000388505990091C2B23846079900F0FAFC10
:100C800004993846324600F073FD0028DED13868FA
:100C9000796A0A788262788D401E7885481C78626D
:100CA000388D401E3885798D00291FD000041DD154
:100CB00000968021002638463246049B00F0F4FC62
:100CC0000028C3D1788D000A06D0FF223A8500960D
:100CD00038460799089B06E0788D38850096C2B2A1
:100CE00038460799069B00F0C5FC039E788D0028C6
:100CF0000499C6D13846324600F010FD0028A5D12F
:100D000038682021C1614268044B13404360617020
:100D1000059D2570A57099E70020008000E800FE81
:100D2000B0B586B000681349884220D10125680417
:100D3000114C216801432160216801400091042089
:100D4000059000200390122002900320049040029E
:100D5000019000980920C00601A9FFF7BFFC6805B3
:100D6000A1680143A160A16801400091009806B00C
:100D7000B0BDC04600540040141002401A4800782C
:100D800002490A68101808607047C046F402002043
:100D900080B59F48016810220A430260032000F0DA
:100DA00005F800F023F8002080BDC04670B5044669
:100DB0007D20C0000C4E3178FFF75CFB01469C485B
:100DC0000068FFF757FB00F057FB0125032C08D8FC
:100DD000002806D10025E84321462A4600F01CF8E9
:100DE0007460284670BDC0460000002082B00948EB
:100DF00001680122114301600168114001910199CC
:100E0000110742680A434260406808400090009819
:100E100002B070471810024080B500F035FF80BD69
:100E2000F0B585B004468078C007384B4AD0012021
:100E30000390010718680840029006D1186808431B
:100E4000186018680840049004980191304E30688A
:100E5000C00511D403980702306838433060FFF7AB
:100E600013FD05463068384206D1FFF70DFD401BE3
:100E70006428F7D9032537E003252802234B596856
:100E8000014012D06268024091420ED003980004E3
:100E900059685A6802435A605A6882435A60084641
:100EA0001C4A10405860C80721D1586819490840A9
:100EB0006168014359600298002803D118680199BC
:100EC000884318602068C10705D0596903229143FF
:100ED000A2680A435A610025800605D55869102189
:100EE0008843E16801435961284605B0F0BDFFF72A
:100EF000CBFC0646474F054B58688007D5D4FFF713
:100F0000C3FC801BB842F6D9EEE7C0461C10024075
:100F100000700040FFFCFFFFF8B500284CD00446ED
:100F20003B4A1368012003408B4208D21368012614
:100F3000B3430B431360126832408A4266D100917A
:100F400021688A070ED54A0705D507221202484DA7
:100F50002B6813432B60464D2A68F0239A43A368FD
:100F600013432B60C90729D129490868012630405D
:100F7000009A904205D90868B04308600868C00725
:100F800044D12078400707D507200002384A11686D
:100F90008143E0680843106000F04EF83449096866
:100FA0000906090F1C4A515CC8402149086003200A
:100FB000FFF7FCFE002629E0012627E061682C4AA5
:100FC000121F022904D0012905D11268920304E0FE
:100FD0001268920101E012689207064616D5244A6B
:100FE00010680326B04308431060FFF74DFC074626
:100FF000084D1F4800680C21014060688000814254
:10100000B2D0FFF741FCC01BA842F2D93046F8BD70
:101010000020024088130000AE2B0008044800683E
:10102000134909684905490F024A515CC840704795
:1010300008000020BE2B000810B50D490A680C23DB
:1010400013400C48082B08D193021B0F0AA4E45C40
:10105000896AD20303D4104807E0044606E00F2251
:10106000114009A2515CFFF705FA4443204610BD28
:101070000410024000127A00020304050607080962
:101080000A0B0C0D0E0F10100102030405060708D1
:10109000090A0B0C0D0E0F1000093D00F0B587B0CA
:1010A00004460120002C00D1BCE104902078C00748
:1010B000EE4E059426D071680C20014004291AD008
:1010C00071680140082902D17068C00313D46168B7
:1010D00001204704002900D178E1052900D18CE1E5
:1010E000012900D18DE1010432688A433260810414
:1010F0003068884388E13068800303D56068002841
:1011000000D1B5E0207880071AD570680007800FFD
:1011100007D070680C210140082971D17068C003A4
:101120006ED430688007059C03D5E068012800D0A4
:101130009EE03068F82188432169C900014331608D
:10114000059C2078000724D42078400734D42078E8
:10115000C00600D4ABE005984069411D00D19AE07B
:10116000012800D0EAE0706B042101437163706BC9
:10117000012101437163FFF787FB0546706B800710
:1011800000D58CE0FFF780FB411B03200229F5D935
:1011900048E1706AE16900295AD001210843706270
:1011A000FFF772FB0546706A8007CDD4FFF76CFB32
:1011B000401B0228F7D934E1012003900107F069B0
:1011C0000840029006D1F0690843F061F0690840D8
:1011D000069006980191A64F3868C00524D403985C
:1011E0000402386820433860FFF74EFB0546386834
:1011F000204219D1FFF748FB401B6428F7D910E1C2
:101200003068059CE168002934D001210843306032
:10121000FFF73AFB0546306880078AD4FFF734FBB6
:10122000401B0228F7D9FCE005988068914F002800
:1012300000D198E0052800D1AAE0012800D1ABE058
:10124000306A039988433062306A04218843A6E0FB
:10125000012188437062FFF717FB0546706A80071B
:1012600000D471E7FFF710FB401B0228F6D9D8E045
:101270000498D7E0012188433060FFF705FB05465D
:101280003068800700D45BE7FFF7FEFA411B0320BC
:101290000229F5D9C6E0706B042188437063706B36
:1012A000F821884305998969C9000143716305984C
:1012B000046A002C1ED070680C21014008291BD143
:1012C000012C049800D1ADE00120030471680B40AB
:1012D000F26A059D6C6AA34200D0A3E00F231A4076
:1012E000EC6AA24200D09DE09A041140AA6A9142A1
:1012F00000D097E0002095E00120020631680492BA
:10130000914331604706FFF7BFFA0546022C0BD127
:10131000049C3068384200D186E0FFF7B5FA411BE3
:1013200003200229F5D97DE030683842E2D0FFF78A
:10133000ABFA411B03200229F6D973E0706B04213C
:1013400001437163706B012188437063FFF79CFA5E
:101350000546706B8007AAD5FFF796FA411B03205C
:101360000229F6D95EE0306A039988433062306A18
:10137000042188433062FFF787FA0546306A800708
:101380001AD5FFF781FA411B0320B942F6D949E08B
:10139000306A042101433162306A039908433062A4
:1013A000FFF772FA0546306A800705D4FFF76CFA3A
:1013B000401BB842F7D934E002980028059C00D0C1
:1013C000C5E6F06901998843F061C0E6010432681E
:1013D0008A4332608004316881433160FFF754FAF8
:1013E0000546059C3068384200D18BE6FFF74CFA81
:1013F000411B03206429F5D914E0810432680A43B3
:1014000032600104306808433060FFF73DFA05465A
:101410003068384200D075E6FFF736FA401B642882
:10142000F6D9032007B0F0BDF06A0F218843059A72
:10143000D16A0143F1623D20000471688143906AE2
:101440000843516A01437160306820433060FFF700
:101450001BFA04463068384200D04BE7FFF714FA15
:10146000011B03200229F5D9DCE7C0460010024029
:101470000070004088130000401E010E01D00120C2
:1014800070470749074A5060074803680B4003212B
:10149000890759180160002090600721116070478A
:1014A000FFFFFF0010E000E020ED00E0B0B50028F5
:1014B0002DD00446C06F002805D17820002121548A
:1014C000204600F027F82420E06720680168012505
:1014D000A9430160606A002802D0204600F02CFA7F
:1014E000204600F00FFB002812D10120C102226823
:1014F00053688B4353609168082399439160116846
:1015000001431160204600F073FA054600E0012512
:101510002846B0BDFEB50068E44988421FD1BE48E8
:1015200041680122059293031943416041681940C3
:1015300000910099510402680A4302600068084063
:1015400000900320049000200390022002900C20C1
:1015500001900920C006009901A9FFF7BFF806B065
:1015600080BDC046FEE700688169890701D500217A
:1015700081628169C90703D1816901220A438261BD
:1015800070470000FEB501920D46044640300290BF
:1015900020688169C90602D4002632463BE010214A
:1015A000C161042601273946826992062ED4CA07F2
:1015B0002CD0691C3946F7D0FFF766F90199411A1A
:1015C0002068A94202D8002D3946EDD1436802991E
:1015D0008A78816909040BD5012189030B4007D161
:1015E000202A05D042680A434260FFF74DF9019076
:1015F000206881698906D6D4FFF746F90199401A17
:101600001A28F5D3206800212426CDE70122C90736
:1016100001D02021C16101258169CB0503D52A02B2
:10162000C2612E432A466B024F0505D4194209D1E7
:10163000002A0AD10020FEBDAA02C2610822164378
:10164000194202D0C361022006432046FFF78BFFF8
:1016500020684168064A0A404260606C304360641A
:101660002020029948700020087088700120FEBD7B
:1016700000E800FE70B5049CE50FAD02084E6E4018
:10168000006845683540074E0E401104891919431A
:1016900021430122D20791432943416070BDC046D6
:1016A000009C00FCFF030000FEB51D4601920F46A2
:1016B00004464030009008980290206880693840C5
:1016C000C01B414241410198814224D12046294614
:1016D000029AFFF757FF012600281DD1681CECD0A5
:1016E000FFF7D2F80299401AA84201D8002DE4D1A0
:1016F000206880693840C01B4142414101988142C5
:10170000DBD1606C202108436064009A5170002096
:101710001070907000E000263046FEBDF8B5164609
:101720000F460446403000902068806980061CD433
:10173000204639463246FFF725FF0125002815D1FE
:10174000FFF7A2F8801BB84201D8002FECD1206827
:1017500080698006E8D4606C202108436064009AA8
:10176000517000201070907000E000252846F8BDF0
:10177000F8B516460F460446403000902068806950
:1017800080071ED4204639463246FFF7FBFE01256E
:10179000002817D1781CF1D0FFF776F8801BB842EB
:1017A00001D8002FEAD1206880698007E6D4606CF8
:1017B000202108436064009A5170002010709070DE
:1017C00000E000252846F8BDF0B587B00024069457
:1017D0000127B80510490A6802430A600A680240F6
:1017E0000192019878040A6802430A60096801407E
:1017F000019101980920C506102628463146224647
:10180000FFF73AF8059404940397029602A9284634
:10181000FEF764FF07B0F0BD1410024010B5134C82
:1018200001200021124A134B23606260A160E06036
:10183000204610301421FEF76BFC2046FFF76CF8B1
:10184000002801D0FEF734FF08480021FFF722F8F6
:10185000002801D0FEF72CFF04480021FFF73BF8D9
:10186000002801D0FEF724FF10BDC046180200205A
:10187000885D80100054004010B50B4800210C22F8
:101880000A4B016241624B24640218C0016041604E
:101890008160C260016141610838FFF707FE0028DE
:1018A00001D0FEF705FF10BD6C020020003801409A
:1018B000FEE77047704780B5FFF760FA80BD70B5EE
:1018C00094B008AC204608301821FEF721FC002512
:1018D0001395012001051291010411910226109621
:1018E0000990089001952046FFF7D8FB002803D007
:1018F000EFF3108072B6FEE7079506950596072070
:10190000049004A80121FFF707FB002803D0EFF3A0
:10191000108072B6FEE710200390029521200090FF
:101920006846FFF77DFA002803D0EFF3108072B607
:10193000FEE714B070BD7047B0B5416A0A0707D51D
:101940000122D20303685C689443426B22435A60CD
:10195000CA0707D00122520403685C689443826A74
:1019600022435A608A0707D50122120403685C6883
:101970009443C26A22435A604A0707D5012292045F
:1019800003685C689443026B22435A60CA0607D519
:101990000122120303689C689443826B22439A607D
:1019A0008A0607D50122520303689C689443C26BE0
:1019B00022439A604A0610D5012213050268546832
:1019C0009C43056C2C4354609D4206D103235B0568
:1019D00054689C43436C23435360090607D5012197
:1019E000C904026853688B43806C18435060B0BDD3
:1019F000FEB50446064678360027F760FEF744FF3A
:101A000003462068016809071CD52648009001207C
:101A100002904105002220461D4600F0F7F80028FC
:101A20000ED0EFF31080029981F3108821680A68C4
:101A300080239A430A6080F310882020E06726E024
:101A400020682B460068400723D5164800900125E2
:101A5000A9050022204600F0D9F8002819D0EFF39C
:101A6000108085F3108809214901226813688B438F
:101A7000136080F31088EFF3108085F310882168DD
:101A80008A68AA438A6080F310882020B06003200F
:101A900005E02020E067B06027666766384637704B
:101AA000FEBDC046FFFFFF01B0B5EFF3108201217C
:101AB00081F3108809235B01046825689D43256034
:101AC00082F31088EFF3108281F3108803689C681A
:101AD0008C439C6082F31088026E012A0AD1EFF3D6
:101AE000108281F3108801680B681024A3430B60F7
:101AF00082F31088802120224250002181660166F5
:101B0000B0BD0000B0B5044600680168374A0A401D
:101B1000A16823690B4365691D431543E1690D43C2
:101B200005600322120343689343E2681A4342604C
:101B3000A269236A13430B221202856895431D4351
:101B400085602B4800688007000F2AA213580125E2
:101B5000EA032C4891420DD1082B42D87B441B79D3
:101B60005B009F44043E1B3E153E3E3E1A00FFF7BD
:101B700055FA0FE0082B34D87B441B795B009F4457
:101B8000043023301D3030302200FFF747FA17E0D1
:101B9000FFF752FA002801D122E0104640006168A8
:101BA0004A081018FEF766FC0246103A16498A42A7
:101BB00017D201400007400F08430FE0FFF73CFA3F
:101BC000002801D10CE0104661684A081018FEF7A1
:101BD00051FC014610390C4A914202D22168C8607A
:101BE00000250020A066E0662846B0BDF369FFFF2F
:101BF0003010024000000000040000000800000057
:101C00000200000000127A00F0FF0000FEB502930F
:101C100016460F460368014678310191089CD96940
:101C20003940C91B4A424A41B2421FD1611CF6D019
:101C30000546FEF729FE0299411A0320A14222D847
:101C4000002C20D028462B6819684907E7D5402F7B
:101C5000E5D0802FE3D0D969090709D4D9690905EE
:101C6000DDD50121C9020325202404E00020FEBDAA
:101C7000012508210C461962FFF716FF0020019983
:101C80000870CC602846FEBD002805D40322034618
:101C900093430A4A9A1803E00C220240064BD218DA
:101CA0008007C00E8901C9B28140FF2383401068BC
:101CB000984308431060704714ED00E000E400E032
:101CC00080B500F017F8F520402100F019F8F42055
:101CD0002F2100F015F880BD1FB504460020C04339
:101CE0000091019202900E48EC2101232246FEF75A
:101CF00069FE1FBD80B5E020B62100F001F880BD6F
:101D0000F8B5024603A801700021C94301230090E1
:101D1000019302910248EC21FEF730FF8FBDC046CF
:101D200018020020FFF734F8FFF7C9FDFFF74CFD5C
:101D3000FFF774FDFFF7A0FD00F002F8FEE70000DA
:101D400094B0FFF7BDFF00F093F99D4801680C9136
:101D500041680B9180680A900EAC0027A77027801D
:101D6000FA200326214632460D96FFF7B5FFA078EC
:101D70000990607808902578F72021463246FFF7D1
:101D8000ABFF2803089909010818099909094018A7
:101D9000FEF75CFB05460E463A468A4BFEF776FA9E
:101DA0003A46894BFEF7C0F93A46884BFEF76EFA81
:101DB00009900891284631463A46854BFEF766FA67
:101DC0003A46844BFEF7B0F902460B46FEF75EFA40
:101DD0003A46814BFEF75AFA02460B460998089993
:101DE000FEF7A2F905460E463A467C4BFEF7B6FAD8
:101DF00002460B46A0780790607806902078059000
:101E00000FAC2046089476A100F03CFA38460D99B4
:101E100000F084F901200990009020460C990B9A5B
:101E20000A9B00F017FA284631463A466F4BFEF7F8
:101E30002DFA3A466E4BFEF777F906460C460246F7
:101E40000B46FEF723FA3A466A4BFEF71FFA3F228B
:101E500013060D933A46FEF719FA054604913046EB
:101E600021463A46644BFEF711FA02460B46FEF74E
:101E70005BF92A46049BFEF757F93A465F4BFEF79B
:101E800005FA3A465E4BFEF74FF90490039130464F
:101E900021463A465B4BFEF7F9F902460B463046BF
:101EA0002146FEF7F3F9FB2295053A462B46FEF74D
:101EB000EDF902900191304621463A46524BFEF729
:101EC000E5F9029A019BFEF72FF93A462B46FEF7F9
:101ED000DDF93A460D9BFEF7D9F93A464B4BFEF732
:101EE00023F93A464A4BFEF7D1F902900E46049880
:101EF00003993A46474BFEF7C9F905460C46059843
:101F00000003069909010818079909094018FEF706
:101F10009DFA02460B4638463F49FEF7A9F92A4684
:101F20002346FEF701F93A463C4BFEF7AFF9029A19
:101F30003346FEF713FA04460D463A46384BFEF791
:101F4000A5F902460B4620462946FEF79FF91F22B7
:101F500053063A46FEF79AF9064607912046294667
:101F60003A46304BFEF792F93A460D9BFEF78EF952
:101F70003246079BFEF7D8F83A462B4BFEF7D4F8CB
:101F80003A462A4BFEF782F902460B46204629467E
:101F9000FEF7CAF802460B46089C204624A100F032
:101FA00071F91321384600F0B9F8099800902046DD
:101FB0000C990B9A0A9B00F04DF900F0C3F8CBE6A0
:101FC000343300080000103FC0A03AC0408BD94015
:101FD0000000E03EC0A00AC00083EF400000B44013
:101FE000543A20252E326620430000000000E03FD6
:101FF0000040EFC020FFEFC000E07BC00000D03FFA
:10200000009C95C100A0A74020C7EA400000F03F17
:10201000A06AE1400000303F00003041006AB84053
:102020000070B74000DFE8400046CE400000B03FFF
:10203000503A20252E3266205061000010B543B280
:10204000002B13D41F2911D807240C400123A340CF
:102050001F24E4010901214008184549012A02D141
:102060000A5C1A4301E00A5C9A430A5410BDC04658
:1020700070B56420FEF720FB0024204600F052F8E3
:1020800020253C4E2846B0472046B047B020B047F8
:10209000C820B0472046B0471020B0474020B04786
:1020A000FF2000F031F8A120B047A620B047A820BB
:1020B000B0471F20B047A420B047D320B0472046E8
:1020C000B047D520B047F020B047D920B0472220F4
:1020D000B047DA20B0470220B047DB20B04728469F
:1020E000B0478D20B0471420B0470125284600F0A6
:1020F00019F869021E48FEF70BF800F023F845486E
:102100004480048070BDC04610B50446812000F0B4
:1021100083F8204600F080F810BD00003D4A518051
:102120001080704780B5411E02468A4104490A70FA
:10213000002801D1AE2000E0AF2000F06DF880BD96
:102140001400002070B50025094C0A4E042D0ED055
:1021500028465038C0B2B0470020B0471020B047E2
:102160008021204600F066F880346D1CEEE770BDDB
:102170001800002019220008F0B587B00492054627
:102180000020202D44D37E2D42D8002B03D0EA1806
:10219000203A127800E00A46D3B21E4C22880693F9
:1021A000D218802A34D8090A6288CBB2991820291B
:1021B0002ED80C984442059044410195203D5D4342
:1021C0000295002503939D421CD0029828184000D8
:1021D00004990F5A00260698B04210D03846B040F5
:1021E0000004224600D5059A0A4908883018C0B272
:1021F00049886918C9B2FFF721FF761CEBE76D1C0F
:10220000039BE0E7034A1088069940181080019864
:1022100007B0F0BD10000020F8B503A90870002237
:10222000D043012300910193029009487821FEF7E1
:10223000A5FC8FBDF8B50022D24389B200AB07C31D
:102240000348782140220123FEF798FC8FBDC04649
:1022500018020020FEB5029315460E460746089C5C
:10226000387800280CD0009431462A46029BFFF7AC
:1022700083FF01467A1C387881421746F0D0FEBDB4
:102280000020FEBD0FB410B504A9074B02AA0398A5
:1022900000F0ECF8044602A9002000F083FC204680
:1022A00010BC08BC04B01847A52B00082021020C64
:1022B00001D010211046020A01D010460839020947
:1022C00001D01046091F820801D01046891E42081D
:1022D00001D0881E7047081A704702E008C8121F14
:1022E00008C1002AFAD170477047002001E001C1FF
:1022F000121F002AFBD17047F0B51FB486B00998B1
:10230000089A030D0021024314D05148514A18186D
:10231000504305141198012810981AD0281A401C0F
:1023200000264D4F4D49009601910490002812DA85
:10233000444211E01198012449A3012801D11098C9
:10234000C1430698119A84600360C26041600BB07B
:10235000F0BD4042E4E70446210500203F4A001C4E
:1023600051410391029012E0E00707D032463B460C
:1023700001990098FDF78AFF0191009032463B4693
:1023800010461946FDF782FF06460F466410002CE2
:10239000EAD10498039B0028029A0999089806DA62
:1023A000FDF774FF019B009AFDF770FF05E0FDF754
:1023B000D5FF019B009AFDF7D1FF04460E4600228F
:1023C000284BFEF749F903D80020C043014607E037
:1023D0000022254B20463146FDF7A6FEFEF71CF9EC
:1023E000102409E0002C0ADB0A220023FEF761F822
:1023F000079B30321A55641E02460A43F2D111225D
:10240000641C079B121B1C19119B012B03D0012379
:1024100008430ED10AE0084304D011201090002098
:10242000119077E71098151A6D1E0BE010988242F4
:1024300002DD00236D1C03E0824201DA00236D1EE1
:10244000002BEED0069811998260C16030C07EE703
:1024500001FCFFFF104D0000000014400000F03FA1
:10246000300000000000F0430000E03FFFB597B0EF
:102470000646002518E2252877D100242746FD4985
:10248000049400E00443761C32780120203A904006
:102490000842F7D130782A280ED00222307801463F
:1024A0003039092916D804990A235943303940187C
:1024B0001443761C0490F1E7189802C80491189010
:1024C000002904DA0120400304434842049002201A
:1024D0000443761C30782E2814D1042004437078ED
:1024E000761C2A2809D11898761C80C8189009E013
:1024F0000A214F43303FC719761C307801463039E6
:102500000929F5D930786C2810D006DC4C281AD06F
:1025100068280ED06A2817D104E0742813D07A28CE
:1025200012D110E00120400504430CE0012109050F
:1025300001E0032109050C437178814203D1012098
:1025400000052418761C761C3078119066280BD074
:1025500013DC58287DD009DC00287BD04528F6D034
:102560004628F4D047281AD1A5E118E0632835D0D1
:10257000642870D0652812D19DE170286CD008DCE9
:102580006728F1D069287BD06E280DD06F2806D13E
:10259000BAE073282ED0752871D0782859D01A9AAD
:1025A000199990476D1C7EE16002400F022809D006
:1025B00003280DD00428189801680DD00D60001D67
:1025C000189070E11898EA1701680D604A60F6E704
:1025D000189801680D80F2E70D70F0E718986A46C8
:1025E00001781172001D18900020507202A800900E
:1025F000012005E0189802C8189000200091C043FF
:1026000061070DD5002101E00199491C0191B942F2
:1026100012DA8142F8DB009A515C0029F4D10BE018
:10262000002101E00199491C01918142FADB019AE4
:102630000099895C0029F5D1019904981A9B471AE1
:1026400021463846199A00F097FA01994019451821
:102650000BE04FE02CE113E04EE000980099007889
:10266000491C00911A9A199990470198401E0190AF
:10267000401CF2D1214638461A9B199A10E137E0E6
:102680000A200021009001916002410F022907D029
:10269000189A01CA1892C2179446032908D00AE072
:1026A0001898C01DC108C90005C91891944607E0D3
:1026B00000B2C2179446042902D140B2C1178C4619
:1026C00000226146944506DA0A46002140429141C3
:1026D0008C462D2102E0210504D52B216A46117379
:1026E000012103E0E10701D02021F7E7029155E045
:1026F0000A200AE0102008E01020009000210420A9
:1027000004430191082703E0082000210191009073
:102710006002410F022907D0189A01CA18920022BC
:102720009446032908D008E01898C01DC108C900C4
:1027300005C91891944603E080B2042900D1C0B2C3
:1027400000210291210729D51199702906D0009AFC
:102750001021019B4A401A4305D00EE040216A46F1
:102760001173012108E06146014306D030216A4619
:1027700011731199517302210291009A0821019B52
:102780004A401A430AD16146014301D1610705D588
:1027900030216A46117301217F1E02911199582937
:1027A00004D035A10E910DA90D910DE037A1F9E7E7
:1027B0006146019B009AFDF77CFE0E9B8C469B5C5C
:1027C0000D9A521E0D92137061460143F0D10D987F
:1027D00005A9081A20300190600703D501200004E4
:1027E000844300E001270198874201DD381A00E0A8
:1027F0000020019900904118029809180498401A85
:102800000490E00306D421461A9B199A049800F01C
:10281000B3F94519002706E003A81A9AC05D199973
:1028200090476D1C7F1C02988742F5DBE0030CD5B6
:1028300021461A9B199A049800F09EF9451904E064
:102840001A9A3020199990476D1C0099481E0090E3
:102850000029F5DC08E00D980D990078491C0D91D0
:102860001A9A199990476D1C0199481E01900029E8
:10287000F1DC63E109280100303132333435363779
:1028800038396162636465660000000030313233BC
:10289000343536373839414243444546000000005C
:1028A00000F05AF94519761C3078002800D0E2E58E
:1028B00028461BB0F0BD600700D406271898C01D3D
:1028C000C108C90048680A680831C30FDB071891BE
:1028D000190001D09CA108E0210501D59BA104E0CD
:1028E000E10701D09AA100E09AA1430011985B088A
:1028F000109165280CD006DC452809D046281DD04B
:10290000472841D141E0662818D067283CD13CE0F7
:102910000021112F01DB112000E0781C01910090B3
:1029200008A911A8FFF7E8FC139905910021119A55
:1029300015927F1C12980197009150E00120C0076A
:1029400003900120019008A9009711A8FFF7D4FC7B
:10295000139A149905920022119B009212981593D4
:10296000059A0192002901D0104602E0791C401816
:102970000190381A01D5019804E04042401E0090B1
:10298000781C0190C01B029043E0012F00DA012760
:102990000021112F01DD112000E038460191009047
:1029A00008A911A8FFF7A8FC13990591119A002115
:1029B000129815920091019721070CD40599B942FC
:1029C00001DB019900E00191012904DD159A491EFE
:1029D000515C302906D0B84201DA011D05DA012127
:1029E000029115E00199491EEDE7002805DC0099E8
:1029F000411800910199091A03E0019A411C914282
:102A000000DD01910099401A401C02900120C0078E
:102A10000390200706D402990198814202DB00202E
:102A2000C043029000206946C87707AF0121039890
:102A30000337C907884224D0022011902B2012901E
:102A4000039800280CDA404203902D20129007E0F2
:102A50000A210398FDF70EFD30317F1E0390397077
:102A60001199481E11900029F2DC03980028EFD13B
:102A7000791E129808703078202108404530BF1E1A
:102A8000387006A8C01BC01D03901098007800285D
:102A900000D00120019941180298C0170918039825
:102AA00009180498401A401E0490E00306D42146F9
:102AB0001A9B199A049800F05FF84519109800784D
:102AC000002803D01A9A199990476D1CE00324D569
:102AD00021461A9B199A049800F04EF845191CE0FB
:102AE0000098002807DB00990598884203DD1598B7
:102AF000405C199901E0199930201A9A9047009882
:102B00006D1C401C00900298401E0290002804D1C9
:102B10001A9A2E20199990476D1C0199481E019010
:102B20000029DDDC05E038781A9A7F1C1999904756
:102B30006D1C0399481E03900029F4DC21461A9B62
:102B4000199A0498ACE600002D0000002B0000004C
:102B50002000000000000000F8B5044600251E46D5
:102B60001746880404D405E039462020B0476D1C80
:102B7000641EF9D52846F8BDFFB50446002581B08E
:102B80001E46C80301D5302700E02027880404D55D
:102B900005E038460399B0476D1C641EF9D52846F8
:102BA00005B0F0BD0A68531C0B6010707047000040
:102BB00000000000000001020304060708090000ED
:102BC00000000102030400000000000000000000FB
:102BD00000000000000000000000001000100010C5
:102BE000001000100010000000100000000000287D
:102BF0000028002800000000000000000000000085
:102C0000000000240024007C00240048007C0048D0
:102C10000048000000000038005400500038001444
:102C200000540054003800100000002000540058E8
:102C300000300028005400140008000000000010BC
:102C4000002800280010003400480048003400002C
:102C50000000001000100010000000000000000044
:102C600000000000000000080010002000200020EC
:102C700000200020002000100008002000100008A4
:102C800000080008000800080008001000200010DC
:102C900000380010002800000000000000000000C4
:102CA00000000000000000100010007C0010001068
:102CB0000000000000000000000000000000000014
:102CC00000000000001000100010000000000000D4
:102CD00000000000003800000000000000000000BC
:102CE00000000000000000000000000000100000D4
:102CF0000000000800080010001000100010002064
:102D0000002000000000003800440044005400444B
:102D10000044004400380000000000100030005063
:102D2000001000100010001000100000000000381B
:102D3000004400440004000800100020007C000053
:102D4000000000380044000400180004000400449F
:102D50000038000000000008001800280028004883
:102D6000007C0008000800000000007C00400040DB
:102D7000007800040004004400380000000000381F
:102D80000044004000780044004400440038000043
:102D90000000007C0004000800100010002000204B
:102DA00000200000000000380044004400380044C7
:102DB0000044004400380000000000380044004493
:102DC0000044003C00040044003800000000000003
:102DD00000000010000000000000000000100000D3
:102DE00000000000000000000010000000000000D3
:102DF00000100010001000000000000C0030004027
:102E00000030000C00000000000000000000000086
:102E1000007C0000007C00000000000000000000BA
:102E200000000060001800040018006000000000AE
:102E300000000038004400040008001000100000EA
:102E400000100000000000380044004C0054005CFA
:102E5000004000400038000000000010002800285A
:102E600000280028007C0044004400000000007896
:102E7000004400440078004400440044007800000E
:102E80000000003800440040004000400040004482
:102E90000038000000000070004800440044004476
:102EA00000440048007000000000007C004000402A
:102EB000007C004000400040007C00000000007CDE
:102EC000004000400078004000400040004000000A
:102ED00000000038004400400040005C0044004412
:102EE000003800000000004400440044007C00441E
:102EF00000440044004400000000003800100010AE
:102F00000010001000100010003800000000000445
:102F10000004000400040004000400440038000021
:102F20000000004400480050006000500048004885
:102F3000004400000000004000400040004000400D
:102F400000400040007C000000000044006C006C69
:102F500000540044004400440044000000000044C9
:102F60000064006400540054004C004C0044000015
:102F70000000003800440044004400440044004481
:102F8000003800000000007800440044004400784D
:102F900000400040004000000000003800440044B1
:102FA000004400440044005400380004000000784D
:102FB00000440044004400780048004800440000F9
:102FC00000000038004400400030000800040044C5
:102FD000003800000000007C0010001000100010FD
:102FE00000100010001000000000004400440044E5
:102FF0000044004400440044003800000000004445
:1030000000440044002800280028001000100000A0
:10301000000000440044005400540054006C002898
:1030200000280000000000440028002800100010C4
:10303000002800280044000000000044004400284C
:103040000028001000100010001000000000007C9C
:10305000000400080010001000200040007C000068
:1030600000000018001000100010001000100010E8
:1030700000100010001800200020001000100010A8
:1030800000100008000800000000003000100010D0
:103090000010001000100010001000100030001090
:1030A000002800280044000000000000000000008C
:1030B0000000000000000000000000000000000010
:1030C0000000000000FE00200010000000000000D2
:1030D00000000000000000000000000000000038B8
:1030E0000044003C0044004C00340000000000405C
:1030F0000040005800640044004400640058000090
:10310000000000000000003800440040004000447F
:10311000003800000000000400040034004C0044AB
:103120000044004C003400000000000000000038A3
:103130000044007C00400044003800000000000C07
:103140000010007C001000100010001000100000A3
:103150000000000000000034004C00440044004C1B
:10316000003400040078004000400058006400442F
:103170000044004400440000000000100000007003
:1031800000100010001000100010000000000010DF
:10319000000000700010001000100010001000105F
:1031A00000E000400040004800500060005000482F
:1031B000004400000000007000100010001000101B
:1031C0000010001000100000000000000000007857
:1031D000005400540054005400540000000000004B
:1031E0000000005800640044004400440044000013
:1031F0000000000000000038004400440044004487
:103200000038000000000000000000580064004486
:1032100000440064005800400040000000000034FA
:10322000004C00440044004C003400040004000042
:1032300000000058006400400040004000400000D2
:103240000000000000000038004400300008004486
:10325000003800000000002000200078002000203E
:1032600000200020001800000000000000000044C2
:10327000004400440044004C003400000000000002
:10328000000000440044002800280028001000002E
:10329000000000000000005400540054006C00289E
:1032A000002800000000000000000044002800107A
:1032B000001000280044000000000000000000444E
:1032C00000440028002800100010001000600000DA
:1032D0000000007C0008001000200040007C00007E
:1032E0000000001800100010001000200020001046
:1032F0000010001000180010001000100010001046
:10330000001000100010001000100030001000101D
:10331000001000080008001000100010003000002D
:10332000000000000074004C0000000000000000DD
:1033300000000000070A0000C62B00080000000083
:10334000603300080000002010000000DA220008AE
:103350007033000810000020E8060000EA22000890
:10336000010000000400000000127A0000000000CC
:04000005080000B13E
:00000001FF
